:100000000C9434000C9451000C9451000C94510049
:100010000C9451000C9451000C9451000C9451001C
:100020000C9451000C9451000C9451000C9451000C
:100030000C9451000C9451000C9451000C945100FC
:100040000C9451000C9466000C9451000C945100D7
:100050000C9451000C9451000C9451000C945100DC
:100060000C9451000C94510011241FBECFEFD4E02A
:10007000DEBFCDBF11E0A0E0B1E0E0EDF1E002C0F5
:1000800005900D92A030B107D9F712E0A0E0B1E0E1
:1000900001C01D92AB3FB107E1F70E94DB000C9459
:1000A000E6000C94000080E184B980EC8CBD1092D5
:1000B00001011092000110920301109202011092AE
:1000C000FA021092F9021092040108951F920F9201
:1000D0000FB60F9211242F938F939F93EF93FF935B
:1000E00080910001909101012EB5FC01EB5FFE4F64
:1000F00020830196909301018093000189E78EBDD2
:10010000FF91EF919F918F912F910F900FBE0F90C4
:100110001F901895209100013091010180910201FA
:10012000909103012817390784F020910001309144
:10013000010140910201509103012851304081E0BA
:10014000421753071CF080E0089581E008959093D2
:10015000C5008093C400E1ECF0E08081886080837A
:1001600080818061808386E08093C20008959091B1
:10017000C00095FFFCCF8093C60008950F931F9396
:10018000CF93DF938C01C0E0D0E0F801EC0FFD1FAE
:1001900080810E94B7002196C931D105B1F7DF9166
:1001A000CF911F910F9108958091C00087FFFCCFE0
:1001B0008091C60008958FE390E00E94A7000E94FE
:1001C00053007894519A599A5998FDCFF894FFCFDB
:00000001FF
